:060000000A128A11122809
:10000800FE00030EF2000408F3000A08F40083124D
:1000180003137F08F5000A128A1159280A128A1157
:10002800152883010A128A11772883160313890178
:1000380006308312031389008316031386110612F0
:100048008616103083120313860083160313861155
:10005800061686122030831203138600023083129C
:100068000313A2000430A100B930A000A00B3A2865
:10007800A10B3A28A20B3A28412801308316031312
:100088008600831203138601890102308312031349
:10009800A2000430A100B930A000A00B5128A10B88
:1000A8005128A20B5128582808008B148B1C6A2849
:1000B8000730F1007D30F000F00B6028F10B60286C
:1000C8000A128A118B200A128A118B107508831262
:1000D8000313FF0074088A0073088400720E8300FB
:1000E800FE0E7E0E09008316031788018901831608
:1000F8000313061481130130950001178B100B169A
:100108008B170A128A1119200A128A1185280800E9
:04400E00F2E0FFFFDE
:00000001FF
